:020000040800F2
:10000000306D0020591B0008C5060008C70600080F
:10001000C9060008CB060008CD0600080000000055
:100020000000000000000000000000004501000882
:10003000CF06000800000000890100086D190008C3
:10004000731B0008731B0008731B0008731B000858
:10005000731B0008731B0008570A0008731B000875
:10006000D7180008731B0008731B0008731B0008D7
:10007000731B0008731B0008731B0008731B000828
:10008000731B0008731B0008731B0008731B000818
:10009000731B0008731B0008731B0008BD090008D0
:1000A000731B0008731B0008731B0008731B0008F8
:1000B000731B0008DF0800083F150008731B0008C9
:1000C000731B0008731B0008731B0008731B0008D8
:1000D000731B0008F11A000827130008731B00089F
:1000E000FB090008731B0008731B0008731B000842
:1000F000731B0008731B0008731B0008731B0008A8
:10010000731B0008731B0008731B0008731B000897
:10011000731B0008731B0008731B0008731B000887
:10012000731B0008731B0008731B0008731B000877
:10013000DFF80CD006F028F900480047B5040008A5
:10014000306D0020224B19680868B0E8F00F80F38A
:100150000988BFF36F8F4FF0000080F311884EF0D5
:100160000D0E70470000000006480068006880F32C
:10017000088862B661B6BFF34F8FBFF36F8F00DFA1
:1001800000BF00BF08ED00E0EFF30980BFF36F8F01
:100190000F4B1A6820E9F00F106008B54FF02000EF
:1001A00080F31188BFF34F8FBFF36F8F04F0B8F85F
:1001B0004FF0000080F31188BDE808401968086816
:1001C000B0E8F00F80F30988BFF36F8F704700BF6E
:1001D00070000020EFF30580704700000024D14E2E
:1001E00000F07DFD05F0FDFD0546052001F0FEFB5C
:1001F000641CE4B20A2CF3D34FF03334CA4F01F03D
:1002000098FB3078012801D100F0DCFD00F067FD9B
:1002100005F0E7FD294605F0FDFC05F01CFE224631
:100220003B4605F06FFD05F041FE7060642003F071
:10023000ABFFE4E7BD4EBE4DBA4C6068B04237DD5F
:100240002978002934D1BBA006F008FB42F21070D7
:1002500003F09AFF4FF47A7003F096FF606800F0A5
:1002600089FD002824D0012060706068A060B9A0DA
:1002700006F0F4FAA06805F0EEFD02460B46BAA0BF
:1002800006F0ECFA606904F075F800206060A5489B
:100290001C3001F0D3F9B9A001F0D0F9BBA001F0F6
:1002A000CDF901F0E1F9B5A001F0C8F901F0DCF9F0
:1002B0000A2003F069FFC0E70025DFF868A28CB0D0
:1002C0002C46A846C822B4A1B4A000F0F9FDC8226B
:1002D000B1A1B2A000F0F4FD02E0B1A006F0BEFAB8
:1002E0006422ADA1B1A000F0EBFD0028F5D1C82239
:1002F000A9A1AFA000F0E4FD00F012FE00F034FE72
:1003000000F07BFE0028DDD0ABA006F0A7FA0120AC
:100310008AF80000ADA00221CDE908100C26CDF826
:100320002880AEA1CDE90461AAA24FF0200B07926C
:100330004746ACA2ADA0CDF818B0CDE90262CDE938
:100340000070ACA30122ADA1ADA007F044FF81462F
:100350004FF4007107F0D8FD0B90DAF8080005F0B3
:1003600059FD07F007FEABA20121CDE9081299A3C0
:10037000CDE906B30A9099A1CDE9046199A29BA0A9
:10038000CDE90262CDE900709AA301229BA19CA055
:1003900007F021FFDFF884B20746DBF800000128F0
:1003A0002FD06D1CEDB229469DA006F057FA4FF4F0
:1003B000FA6003F0E9FE9AF80100564620B395A0D2
:1003C0000090B06805F026FD07F0D4FD20B141682B
:1003D0004A1C01D0491C416002463846009907F08A
:1003E000B7FE4FF40071384607F08EFD64220146D7
:1003F000009000F065FD009807F082FA86F8018011
:10040000CBE7CBF800805DE7641CE4B2142CC4D1C8
:10041000002489A006F022FA8C48006805F01BFD34
:1004200002460B468AA006F019FAB9F1000F04D172
:10043000642251A18BA000F043FD0B9820B96422E7
:100440004DA18EA000F03CFD64224BA10B9800F062
:1004500037FDA2E71CB505F017F93249022010312B
:100460000023CDE9000180228AA1AFF2B31003F08E
:10047000C9FC2C49042014310023CDE9000180225D
:1004800087A1AFF24F2003F0BDFC264903201831AD
:10049000CDE9000100234FF4807284A1AFF2C320A4
:1004A00003F0B0FC1F48C06803F0D7FCBDE81C4057
:1004B00005F004B91CB54FF4407001F05FFB01F08A
:1004C0005FFA4FF4E134204601F0C6FA00F0ACF9CF
:1004D00000F046FB00F014FA204600F092FF4FF4C3
:1004E000165001F059F800F0D9FB01F0DFF801F0E7
:1004F00049F941F61F4141F2883000F0BFF901F09F
:10050000ADF9084901200C310023CDE9000180221A
:1005100069A1AFF2BF0003F075FC04F019F80020E8
:100520001CBD00000000002033335A400000484347
:1005300038000020C8CECEF1BAAFCAFD31D6D06B9C
:1005400065795F77616B657570D6B5A3BA25640D63
:100550000A000000B9D2C6F0C8CECEF131B5C4D47D
:10056000CBD0D0210D0A00005765696768745F53CE
:10057000656E643A25660D0A00000000B4F2D3A14E
:10058000BBFAB2E2CAD4B3CCD0F200007072696E8A
:1005900074207465737400004F4B00002B2B2B00EC
:1005A00041542046616C6965640D0A0041540000A5
:1005B000415445300000000073696D3830306320CD
:1005C000736574206F6B0D0A000000006265617432
:1005D00000000000696E666F00000000645F6368E1
:1005E00065636B006D616A6F720000007575696408
:1005F00000000000655F747970650000757076001A
:100600007B73697369736973697369736973697DEE
:100610000000000077656967687400003C000020F6
:10062000C8CECEF14B4559D2D1BEADD6B4D0D0A3B1
:10063000BA2564B4CE0D0A00B7A2CBCDD2BBB4CEDE
:10064000D0C4CCF8B0FC0D0A000000004C00002023
:1006500044697374616E63653A256620636D0D0AA3
:1006600000000000726F6F745F686561727462658C
:100670006174206973206E756C6C00006F75745F17
:10068000686561727462656174206973206E756C4F
:100690006C0000006B65795F7461736B0000000093
:1006A0007461736B315F7461736B00007461736BA1
:1006B000325F7461736B000073746172745F746194
:1006C000736B00007047FEE7FEE7FEE7FEE770474A
:1006D0000CB500224C4800920192016841F480312F
:1006E00001604FF4A063016801F4003101910099A9
:1006F000491C0091019911B900999942F3D10168FF
:10070000890333D50121019140490A6842F0100262
:100710000A600A6822F003020A600A6842F00202D4
:100720000A604168416041684160416841F480610C
:100730004160416821F47C114160416841F4E81155
:100740004160016841F08071016001688901FCD558
:10075000416821F003014160416841F002014160BC
:100760004168C1F381010229FAD10CBD01920CBD8F
:10077000254810B5016841F0010101604168244A33
:10078000114041600168234A11400160016821F471
:1007900080210160416821F4FE0141604FF41F0196
:1007A0008160FFF795FF1C494FF00060086010BDA5
:1007B000154A10B55068194B10F00C01184803D0B9
:1007C000042901D0082901D0036012E05168536860
:1007D00001F470114FF0020413F4803F04EB9141D7
:1007E00002D053689B0301D50E4B00E00B4B5943DD
:1007F000016051680A4AC1F30311121D515C02687D
:10080000CA40026010BD00000010024000200240FB
:100810000000FFF8FFFFF6FE08ED00E000127A008E
:100820002400002000093D0038B50121242001F0FA
:100830003CFC4FF48074ADF8004010208DF80300AC
:1008400003200C4D8DF802006946284601F045FA58
:100850002146284601F0ABFA0420074CADF8000011
:100860006946204601F039FA0421204601F09FFA3A
:1008700038BD000000080140001401401FB50121EF
:10088000022001F01BFC41F288310020ADF8041079
:10089000ADF8020041F61F41184CADF80010ADF85C
:1008A00006006946204601F07BFE012211462046E3
:1008B00002F033F901224021204602F02EF91D20DA
:1008C0008DF80C0001208DF80F0006208DF80D002A
:1008D00005208DF80E0003A801F055F91FBD10B5D5
:1008E000064C0121204602F02CFB002805D02046B2
:1008F000BDE81040012102F030BB10BD00040040F3
:10090000FEB50121084601F0D0FB00F029F90521D0
:10091000022001F096FA002520208DF804500C26C4
:1009200000908DF8056001248DF80640684602F0BD
:1009300025FB0F21002001F084FAE0038DF804501C
:1009400000908DF805608DF80640684602F016FBB1
:100950000021084601F075FA8DF8045008208DF842
:10096000050000948DF80640684602F007FB17204A
:100970008DF8080006258DF8095002208DF80A0030
:100980008DF80B4002A801F0FEF828208DF8080031
:100990008DF8095003208DF80A008DF80B4002A84D
:1009A00001F0F1F88DF808508DF809508DF80A40E3
:1009B0008DF80B4002A801F0E6F8FEBD70B51420DA
:1009C00001F02DF820213D4801F0DDF980B93C4EC1
:1009D0000124C6F8A0413B4DC5F88841322005F5F9
:1009E000C47506F5D07601F01AF8002030602C604E
:1009F000BDE87040202002F01FBB70B5142001F04C
:100A00000EF84FF4004529462F4801F0BCF9E8B92B
:100A10002B490120C1F8A0012A49C1F888012B48BF
:100A2000002101702AA005F019FF3148006803F089
:100A300041FD04462FA005F011FF012C06D13249DB
:100A400020070860BFF34F8FBFF36F8F2846BDE8C4
:100A5000704002F0F1BA70B501211B4801F093F922
:100A6000012826D1642000F0DAFF284C284901260D
:100A70002068164D884207DD26A005F0EFFE3146BE
:100A80002E7028A005F0EAFE2878012811D12068F0
:100A900000F070F968B12B482B4906702068086097
:100AA00005F0D9F902460B4628A005F0D7FE002034
:100AB0002060BDE87040012002F0BEBA0010014085
:100AC000000021420080224200080140380000203E
:100AD000D0D0B3CCBFAAB9D8D6D06B65795F7761D7
:100AE0006B657570D6B5A3BA25640D0A00000000C9
:100AF00014000020BBD6B8B4C8CECEF131B5C4D4F2
:100B0000CBD0D0210D0A000004ED00E0040000204D
:100B100000004843C0ACBBF8CDB6B7C5CDEAB1CFF5
:100B200000000000CDB6B7C5B0B4BCFCD6D06B6534
:100B3000795F77616B657570D6B5A3BA25640D0AC8
:100B400000000000010000200800002057656967D0
:100B500068745F53686977753A25660D0A0000006E
:100B600038B50121142001F0A0FA0121474801F015
:100B70003FF94FF40040ADF80000454D48248DF892
:100B800003406946284601F0A8F82021ADF800107E
:100B90008DF8034069463F4801F09FF80120ADF809
:100BA000000028208DF803006946284601F095F8DA
:100BB00038BD2DE9F041384C364F354D01264FF404
:100BC000004808B1267001E0207878B1202138462D
:100BD00001F0D9F888B14146284601F0D4F860B157
:100BE0000121284601F0CFF8012806D020213846FF
:100BF00001F0C9F801281DD028E00A2000F0F6FE17
:100C0000002020702021384601F0BDF858B141463F
:100C1000284601F0B8F848B10121284601F0B3F8A0
:100C2000012805D012E00120BDE8F0810220FBE799
:100C30000320F9E74146284601F0A5F8012805D12F
:100C40000121284601F09FF800B926700020EBE74B
:100C500070B5114C10B10120607001E0607888B16E
:100C60000B4D0121284601F08EF801280AD10A20F7
:100C700000F0BCFE002060700121284601F083F8DE
:100C8000012801D0002070BD032070BD000230009B
:100C900000080140001001403900002038B5012152
:100CA000102001F002FA4FF48050ADF8000010203F
:100CB0008DF803002E4D03248DF802406946284626
:100CC00001F00BF8E914ADF8001004208DF80300D2
:100CD0008DF802406946284600F0FFFF38BD2DE937
:100CE000F047234E4FF4006700243946304601F0A8
:100CF0005EF84FF480584146304601F05AF83946C4
:100D0000304601F040F80028F9D1012000F056FEED
:100D1000B946002547463946304601F048F8640098
:100D2000012000F04BFE3946304601F042F84946BA
:100D3000304601F028F800B1641C012000F03EFEAE
:100D40006D1CEDB2182DE6D33946304601F02FF870
:100D500084F40004012000F031FE3946304601F0F1
:100D600028F8012000F02AFE2046BDE8F0870000A8
:100D7000001001400749884209DD07490120C1F8F8
:100D8000A00106490020C1F8880101207047002019
:100D9000704700000000C84200002142008022424B
:100DA00070B5BC4C0546218808040AD5C1F30E0075
:100DB000B94900260E54B9A005F050FD002D00D011
:100DC000268070BD70B5B34D0646D4B0298808049E
:100DD00066D5C1F30E00B04900240A460C54AFA1F9
:100DE00043A805F063FD06B12C8043A9ACA005F033
:100DF00035FD8DF83D41ACA005F030FD9DF80C01AE
:100E00007B284DD19DF80D01222849D1A9A005F0DC
:100E100025FD04AA042143A807F0C6F8040001D068
:100E2000207890B1A6490120C1F8A001A549C1F8D8
:100E3000880180F31388A4480168A44A01F4E061A2
:100E400011430160BFF34F8FFEE7A1A005F006FD3F
:100E500052ABA7A251A9A8A08DE80F0050ABA8A241
:100E6000A9A1204607F004FA70B9ABA005F0F6FC82
:100E7000ACA0509905F0F2FCAEA0519905F0EEFC43
:100E8000B0A0529905F0EAFC204607F005F9616828
:100E900020464A1C04D0491E416001D106F0F5FFEE
:100EA00054B070BD7B4A014600201288130406D559
:100EB000794BC2F30E029854184604F013BE7047E3
:100EC0002DE9F0410025734E8846144601462F4611
:100ED0003580FF2807D8A048D0F88420002AFBD10D
:100EE0009E48018002E06EA000F003FBB8F1000F05
:100EF00013D06CB911E00A2000F078FD30880004AE
:100F000006D54046FFF7CEFF08B12CB105E037808B
:100F1000641E2404240CEED101252846BDE8F0818E
:100F200010B5C8228EA18FA0FFF7CAFFC8228CA1DE
:100F300094A0FFF7C5FFC822002199A0FFF7C0FFCA
:100F4000052000F053FDC82285A199A0FFF7B8FF46
:100F5000C82283A19AA0FFF7B3FFBDE810404FF469
:100F600016729EA1A0A0ABE72DE9F041494F8EB0CB
:100F700000260125E8463E80C82279A19CA0FFF703
:100F80009FFF3E80C82276A19CA0FFF799FF50B139
:100F90000025C8229CA19EA0FFF792FFC8B10025A2
:100FA00028460EB0BAE776A13B4804F09BFD04004A
:100FB0000DD073A1601C04F095FD0670621C96A113
:100FC000404605F073FC414635A005F047FC3E80E5
:100FD000DFE78EA1304804F085FD044691A104F0BE
:100FE00081FD0670A21C90A1404605F05FFC4146C1
:100FF0002BA005F033FC3E80D2E770B5254D0026CE
:1010000001242E80C82256A18AA0FFF759FFC822CA
:1010100053A188A0FFF754FF2E80C82250A186A0BC
:10102000FFF74EFF002821D00024C8224CA185A044
:10103000FFF746FF00281DD00024C82248A184A045
:10104000FFF73EFF002819D00024C82244A184A045
:10105000FFF736FF002815D00024C82240A186A043
:10106000FFF72EFF90B10024204670BD8DA005F043
:10107000F5FBDAE78EA005F0F1FBDEE792A005F0C4
:10108000EDFBE2E795A005F0E9FBE6E799A005F0A6
:10109000E5FBE9E744000020180500202573000067
:1010A00025730D0A0000000074657374206F6B0DCA
:1010B0000A00000072656376206F6B0D0A00000065
:1010C00000002142008022420CED00E00400FA05FD
:1010D000726F6F745F646F776E2069732061206A2E
:1010E000736F6E206F626A6563740D0A0000000002
:1010F000636865636B000000696E666F0000000046
:10110000646F776E760000007B733A692C20733A27
:10111000692C20733A697D00756E7061636B206F76
:101120006B0D0A0076616C75655F646F776E3A25AA
:10113000640D0A0076616C75655F696E666F3A25AD
:10114000640D0A0076616C75655F636865636B3A70
:1011500025640D0A00000000000002400444004025
:101160004F4B000041542B53415042523D332C31E0
:101170002C22436F6E74797065222C224750525393
:101180002200000041542B53415042523D332C3138
:101190002C2241504E222C22434D4E455422000019
:1011A00041542B53415042523D312C31000000003C
:1011B00041542B434E54504349443D3100000000FC
:1011C00041542B434E54503D223230322E31323076
:1011D0002E322E313031222C333200002B434E542C
:1011E000503A20310000000041542B434E5450002F
:1011F00041542B4350494E3F0000000041542B43C3
:101200004F50533F000000002B4353513A00000061
:1012100041542B4353510000D4CBD3AAC9CC3A2517
:10122000730000002C000000D0C5BAC5D6CAC1BFEB
:101230003A2573002B2B2B0041542B434741545428
:101240003D31000041542B43495053485554000050
:1012500041542B4349504D4F44453D31000000005F
:1012600041542B434C504F52543D22544350222C56
:10127000223230303022000041542B434950535425
:101280004152543D22544350222C223132302E37C9
:10129000382E3134342E3535222C2232303030364F
:1012A0002200000047505253B8BDD7C50D0A0000B8
:1012B000B9D8B1D5D6AEC7B0CBF9D3D0B5C4C1ACCF
:1012C000BDD30D0A00000000BDF8C8EBD7D4B6AFFF
:1012D000CDB8B4ABC4A3CABD0D0A0000C9E8D6C3DB
:1012E000B1BEB5D8B6CBBFDACEAA323030300D0A97
:1012F00000000000C1ACBDD3B7FECEF1C6F70D0AA9
:101300000000000010B5DF4A4FF0000130B1144674
:10131000104601F0EAFD0121204600E01046BDE83C
:10132000104001F0E5BB70B5D74C40F22551204686
:1013300001F06EF8002816D0204601F002F8D34CD8
:10134000C5B26088B0F5806F0ED20021CD4801F0A3
:10135000CCFD608810B90120FFF7D4FFCC4960882C
:101360000D54401C608070BD40F40040FAE77FB52A
:101370000D4604460121042000F0A0FEADF8044013
:101380000020ADF80050BF4CADF80600ADF80200EB
:101390006946204601F004F901221146204601F079
:1013A000BCFB1E208DF80C0001208DF80D000221E1
:1013B0008DF80E108DF80F0003A800F0E4FB7FBD40
:1013C00070B50C46064601218CB01546084600F063
:1013D00063FE304601F038FE00211020CDE9020105
:1013E0008020CDE904104001CDE9081006910A9152
:1013F000079169463046CDE9004501F092FE0CB0F8
:1014000070BD2DE9F041804686B00121042000F036
:101410004CFE0121480400F051FE9B4E304600F086
:1014200093FE0424ADF8104003258DF812501820C7
:10143000984F8DF8130004A9384600F04EFC0820A0
:10144000ADF810008DF8134004A9384600F045FCB3
:101450000024ADF808400C20ADF80440ADF80A00B7
:10146000CDF80080ADF80640ADF80C406946304636
:1014700000F09AFE01228021304600F02AFF864AC1
:10148000311D8648FFF79CFF0121304600F0FFFE2A
:10149000012240F22551304600F003FF26208DF84E
:1014A000140002208DF815008DF8165001208DF8DB
:1014B000170005A800F067FB41F61F416320FFF706
:1014C00056FF724844800020FFF71CFF06B0BDE8BD
:1014D000F08170B50C460546002101F04CFE214616
:1014E000284601F05BFE2846BDE87040012101F06E
:1014F00042BE0FB4684810B503AA029905F000FA7D
:1015000066488038D0F884100029FBD1624804F086
:1015100005FB81B26148FFF7DCFF10BC5DF814FBEE
:1015200010B504460021574801F0DFFC55492C3125
:101530000888002008800A8822430A8010BD10B560
:10154000504C0121204601F0FCFC002823D0012151
:10155000204601F002FD524B4C4A187898B11178A0
:10156000491CC9B21170814215D100201070187049
:10157000508840F4004050800020FFF7C3FEBDE8D3
:1015800010406320CCE7508840F400405080BDE814
:1015900010400020B6E610BD70B5044686B00121AB
:1015A000082000F082FD0121880400F087FD4FF43F
:1015B0000060ADF8100004203A4E8DF8130004A925
:1015C000304600F08AFB3515ADF8105003208DF839
:1015D000120018208DF8130004A9304600F07DFB9E
:1015E000A800ADF804000094ADF8085000240C20C9
:1015F0002D4DADF80A00ADF80640ADF80C40694637
:10160000284600F0D1FD012240F22551284600F085
:1016100048FE0121284600F03AFE4FF4E06000F059
:10162000ADFA27208DF814008DF8164001208DF8B2
:10163000170005A800F0A7FA06B070BD70B5054602
:101640000024194E0AE0295D304600F076FE402164
:10165000304600F0D3FE0128F9D1641C284604F07E
:101660005DFAA042EFD870BD10B50F4C0D21204699
:1016700000F063FE4021204600F0C0FE0128F9D1B1
:1016800010BD00000008004000440040420000205F
:1016900018050020000801401801002080000240C9
:1016A00040000020000C01400048004038B50121F6
:1016B000082000F0FAFC4FF40060ADF800001020A4
:1016C0008DF803002E4D03248DF80240694628460C
:1016D00000F003FB2915ADF8001004208DF803007D
:1016E0008DF802406946284600F0F7FA38BD2DE92A
:1016F000F047234E4FF4806700243946304600F00F
:1017000056FB4FF400684146304600F052FB394624
:10171000304600F038FB0028F9D1012000F04EF9E6
:10172000B946002547463946304600F040FB640084
:10173000012000F043F93946304600F03AFB4946B3
:10174000304600F020FB00B1641C012000F036F9A7
:101750006D1CEDB2182DE6D33946304600F027FB5C
:1017600084F40004012000F029F93946304600F0E5
:1017700020FB012000F022F92046BDE8F0870000A0
:10178000000C014038B50121082000F08EFC4FF418
:101790000050ADF8000010208DF803002E4D0324FA
:1017A0008DF802406946284600F097FAA914ADF872
:1017B000001004208DF803008DF802406946284689
:1017C00000F08BFA38BD2DE9F047234E4FF48057D7
:1017D00000243946304600F0EAFA4FF400584146FA
:1017E000304600F0E6FA3946304600F0CCFA0028E0
:1017F000F9D1012000F0E2F8B94600254746394604
:10180000304600F0D4FA6400012000F0D7F83946E1
:10181000304600F0CEFA4946304600F0B4FA00B146
:10182000641C012000F0CAF86D1CEDB2182DE6D33F
:101830003946304600F0BBFA84F40004012000F081
:10184000BDF83946304600F0B4FA012000F0B6F891
:101850002046BDE8F0870000000C01407FB5012163
:10186000092000F022FC10208DF803000220ADF8C2
:1018700000003B4E03258DF802506946304600F0CB
:101880002CFA28208DF803000124ADF800408DF8D3
:1018900002506946304600F020FA0021012000F095
:1018A000D0FA8DF80A4000208DF80800042608259B
:1018B00001968DF8095001A801F060FB8DF80C50DD
:1018C0008DF80F4006208DF80D008DF80E6003A8EE
:1018D00000F059F97FBD70B50A2000F06FF80420C0
:1018E00001F09CFB002823D01E4C0021204601F073
:1018F000FCFA0121204601F0FBF8194D0121284690
:1019000000F041FA0028F9D10021204601F0F0F85A
:10191000204601F008FB04F064FA1349B0F1804F4F
:10192000086000DD4860BDE87040042001F084BB21
:1019300070BD10B50A4C0221204600F038FA142080
:1019400000F03CF80221204600F033FA142000F0A9
:1019500035F82046BDE81040022100F028BA00000A
:10196000000C0140000400404800002010B503F0C6
:1019700033F8012803D0BDE8104003F0B0BE10BD1D
:1019800010B5042000F03FF92B482C492C4A006880
:10199000B0FBF1F3B0FBF1F14FF47A7041431370F7
:1019A000012050804FF0E020026942F00202026103
:1019B0004161016941F00101016110BD70B54FF055
:1019C000E02500216C691E4AAB6912785043AA6970
:1019D0009A42FCD002D2A3EB020302E0A4EB02067F
:1019E0003344194413468142F1D370BD70B50446A7
:1019F00002F0F2FF01280CD0114D6888844203D315
:101A0000B4FBF0F002F0C0FB6888B4FBF0F100FB1F
:101A100011444FF47A706043BDE87040CEE770B572
:101A2000054600244FF47A7603E03046FFF7C6FF00
:101A3000641CAC42F9D370BD2400002040420F006A
:101A400050000020704740490A885206FCD53E4AA3
:101A5000C1B2121D1180704770B5054686B00121D4
:101A600044F2040000F021FB4FF40070ADF81000C8
:101A700003248DF812401820344E8DF8130004A969
:101A8000304600F02AF93015ADF8100004208DF82A
:101A9000130004A9304600F020F925208DF8140029
:101AA0008DF815408DF8164001208DF8170005A817
:101AB00000F069F80020ADF80400ADF80600ADF8BC
:101AC0000800ADF80C000C201F4CADF80A00009582
:101AD0006946204600F068FB012240F2255120466D
:101AE00000F0DFFB0121204600F0D1FB06B070BD05
:101AF00070B5154C40F22551204600F089FC0028B5
:101B00000ED0204600F01DFC114AC1B2108803041B
:101B100006D444044FF0000306D50A2901D01380EF
:101B200070BD40F400400DE00D2909D0C0F30D0454
:101B3000084D401C80B229551080C728EFD870BDD1
:101B400040F48040108070BD003801400008014022
:101B50005400002018090020064880470648004726
:101B6000FEE7FEE7FEE7FEE7FEE7FEE7FEE7FEE74D
:101B7000FEE7FEE771070008310100082849084325
:101B800028490860704730B50F23C27801780125D5
:101B9000F2B1244A126801F1E02102F4E062C2F5D8
:101BA000E062120AC2F10404D3404278A240847871
:101BB0001C401443220181F80024007800F01F012A
:101BC0008D404009800000F1E020C0F8005130BD98
:101BD00001F01F0085404809800000F1E020C0F8B6
:101BE000805130BD104A114001430E48001F016072
:101BF00070470C4A121D0029116801D0014300E012
:101C00008143116070474FF0E0210428086903D038
:101C100020F004000861704740F00400FAE700007B
:101C20000000FA050CED00E080FFFF1F8F4910B5A2
:101C3000884206D10121042000F049FA0021042045
:101C40003BE08B49884206D10121082000F03FFA91
:101C50000021082031E08749884206D10121102067
:101C600000F035FA0021102027E08349884206D190
:101C70000121202000F02BFA002120201DE07F49C7
:101C8000884206D10121402000F021FA00214020A5
:101C900013E07B49884206D10121802000F017FA29
:101CA0000021802009E0774988420AD1841501216A
:101CB000204600F00CFA00212046BDE8104000F05C
:101CC00006BA10BD10B50121084600F000FA002147
:101CD000BDE81040012000F0FAB9F0B5CC78002240
:101CE00004F00F03E40601D58C7823430C784FF001
:101CF0000F0C14F0FF0F4FF0010E1BD005680E887B
:101D00000EFA02F42640A64210D196000CFA06F70D
:101D100025EA070703FA06F5CE783D43282E02D0C0
:101D2000482E02D002E0446100E00461521C082AFF
:101D3000E5D305600A88FF2A1CD94468002202F115
:101D400008060EFA06F50E882E40AE420ED1960019
:101D50000CFA06F7BC4303FA06F7CE783C43282E6C
:101D600000D14561CE78482E00D10561521C082A69
:101D7000E5D34460F0BD4FF6FF7101800221817010
:101D80000421C17070470246002092680A4200D0C8
:101D900001207047806880B2704702460020D268F8
:101DA0000A4200D001207047C06880B270470161CC
:101DB0007047416170470AB10161704741617047E6
:101DC000C160704741F480328261816182618169C2
:101DD000806970472C4B10B51A684FF6807422400A
:101DE00042EA00100843186010BD2849C8617047D6
:101DF000F0B5254C002801DAE36900E06368450D81
:101E00002E0185B2C0F30157B540C0F30342032F42
:101E100005D0C6020AD503269640B34307E023F057
:101E20007062636823F07063636002E0AB4343F069
:101E3000706201B12A43002801DAE261F0BD6260FC
:101E4000F0BD10B58A0721F003040F49120F214499
:101E50000F238C6893409C438C608B6890400343B5
:101E60008B6010BD0949C1F8DC00704700080140D3
:101E7000000C014000100140001401400018014016
:101E8000001C0140002001400000014000002042F1
:101E9000A548016841F0010101604168A34A114071
:101EA00041600168A24A11400160016821F480216B
:101EB0000160416821F4FE0141604FF41F0181601F
:101EC000704799490A6822F480320A600A6822F44D
:101ED00080220A60B0F5803F07D0B0F5802F03D193
:101EE000086840F4A02008607047086840F480301B
:101EF000F9E70346002059098B4A01290AD0022933
:101F00000AD0516A03F01F02012393400B4200D014
:101F1000012070471168F5E7116AF3E718B5002052
:101F20004FF4A06400903120FFF7E3FF0099491CB3
:101F30000091A14201D00028F5D03120FFF7D9FF50
:101F4000002800D0012018BD774A116821F0F8015F
:101F500041EAC00010607047764908607047724BD4
:101F60005A68084322F47C12104358607047714944
:101F7000086670476C4A516821F0030101435160C3
:101F800070476948406800F00C007047664A516825
:101F900021F0F001014351607047634A516821F418
:101FA000E0610143516070475F4A516821F460511C
:101FB00041EAC000506070475B4A0029517A01D065
:101FC000014300E08143517270475A49C1F8D8007B
:101FD0007047554A516821F44041014351607047B0
:101FE0005149002281F8202081F82020012802D0C8
:101FF000042802D1052081F8200070474E4908606E
:10200000704749490A6A02430A6270474A4944399B
:102010000860704730B5444A5168484B11F00C01D4
:1020200003D0042901D0082901D0036012E05168CF
:10203000536801F470114FF0020413F4803F04EB75
:10204000914102D053689B0301D53D4B00E03B4BCF
:102050005943016051680F2303EA1111394B5C5C4D
:102060000168E14041605468072505EA14241C5DBD
:1020700021FA04F48460546805EAD4241B5DD94035
:10208000C1605268032303EA92322E4B1B1F9A5CF5
:10209000B1FBF2F1016130BD234A0029516901D041
:1020A000014300E08143516170471F4A0029916953
:1020B00001D0014300E08143916170471A4A002931
:1020C000D16901D0014300E08143D1617047164AD4
:1020D0000029D16801D0014300E08143D1607047FD
:1020E000114A0029116901D0014300E081431161C7
:1020F000704711494039086070470E49C8647047FD
:102100000949C87170470848416A41F080714162CD
:102110007047054A0146002092680A4200D001201B
:102120007047014988727047001002400000FFF8B4
:10213000FFFFF6FE000042428004424200127A0095
:1021400000093D0060000020C44910B588420AD152
:1021500001218C032046FFF7BAFF2046BDE810405E
:102160000021FFF7B4BFBE49884202D101214C04CF
:1021700010E0BC49884202D101218C040AE0BA492E
:10218000884202D10121CC0404E0B84988420AD136
:1021900001210C052046FFF7A3FF2046BDE81040B3
:1021A0000021FFF79DBF10BD30B50446008A85B001
:1021B0000D464CF6FF710840E98801432182A08951
:1021C0004EF6F3110840A9882A8911436A8902430F
:1021D0001143A181A08A4FF6FF410840A98901431C
:1021E000A1826846FFF716FF9C48844201D10398FC
:1021F00000E00298A189090400EBC00101EB001086
:10220000296801D5490000E08900B0FBF1F06422A3
:10221000B0FBF2F109010B096FF018056B4300EBFD
:102220008300A3891D044FF0320306D503EBC000E1
:10223000B0FBF2F000F0070005E003EB0010B0FB8C
:10224000F2F000F00F000843208105B030BD4FF4DC
:102250001651016000218180C18001810C224281E0
:102260008181704710B5028A4FF2FF031A400B8834
:102270004C8823438C88C9880C432343134303822F
:1022800010BD0021018041808180C18070470029FC
:10229000818902D041F4005101E021F40051818193
:1022A000704710B5C1F3421301F01F040121A14092
:1022B000012B07D0022B07D01430002A026805D06A
:1022C0000A4304E00C30F8E71030F6E78A43026076
:1022D00010BD002A828A01D00A4300E08A4382822C
:1022E0007047028A22F00F020282028A0A430282A7
:1022F0007047828922F40062828182890A43828146
:1023000070470029818902D041F0020101E021F0EB
:10231000020181817047028A22F020020282028A31
:102320000A43028270470029018A02D041F48041A9
:1023300001E021F4804101827047C1F308018180EE
:1023400070478088C0F308007047818941F001011F
:1023500081817047028BD2B20283028B42EA012153
:1023600001837047028B02F47F420283028B0A438F
:10237000028370470029818A02D041F0200101E0E8
:1023800021F02001818270470029818A02D041F02A
:10239000100101E021F01001818270470029818A3B
:1023A00002D041F0080101E021F00801818270476C
:1023B0000029818902D041F4004101E0C1F30E01FE
:1023C000818170470029818A02D041F4006101E0D7
:1023D00021F4006181827047828A22F004028282A5
:1023E000828A0A43828270470029818A02D041F0A2
:1023F000020101E021F002018182704702460020C3
:1024000012880A4200D001207047C94301807047FA
:1024100070B501F01F0501260024C1F3421306FA2E
:1024200005F2012B0FD0022B0FD0838A4FEA112126
:102430000088134206FA01F600EA060001D000B156
:102440000124204670BD8389F0E7038AEEE70A0A7B
:1024500001219140C94301807047000000380140CC
:102460000044004000480040004C00400050004044
:10247000F94910B5884202D10121C41486E0B0F1B7
:10248000804F09D0F54988420DD101210220FFF784
:1024900027FE0021022064E001210846FFF720FE0C
:1024A000002101205DE0EE49884206D1012104208F
:1024B000FFF716FE0021042053E0EA49884206D1C6
:1024C00001210820FFF70CFE0021082049E0E64921
:1024D000884206D101211020FFF702FE00211020C2
:1024E0003FE0E249884206D101212020FFF7F8FDB4
:1024F0000021202035E0DE49884202D10121441428
:1025000044E0DC49884202D10121CC043EE0DA49B2
:10251000884202D101210C0538E0D849884202D115
:1025200001214C0532E0D649884206D101214020E4
:10253000FFF7D6FD0021402013E0D249884206D1A2
:1025400001218020FFF7CCFD0021802009E0CE4949
:1025500088420AD1841501212046FFF7C1FD0021E0
:102560002046BDE81040FFF7BBBDC849884202D1F4
:1025700001210C040AE0C649884202D101214C0421
:1025800004E0C44988420AD101218C042046FFF7A7
:102590009EFD2046BDE810400021FFF798BD10BD0C
:1025A00030B50288AC4CB24DA0420DD0A8420BD041
:1025B000B0F1804F08D0A94B984205D0A84B984263
:1025C00002D0A84B984203D122F070034A881A43E4
:1025D000A54B984206D0A54B984203D022F44073F5
:1025E000CA881A4302808A8882850A880285A042A6
:1025F0000AD0A84208D0A54A904205D0A44A9042E9
:1026000002D0A44A904201D1097A01860121818237
:1026100030BD30B5028C22F001020284028C838826
:10262000048B22F0020224F073050C882C430D89E0
:1026300015434A882A43884DA8420BD08C4DA842A6
:1026400008D0924DA84205D0914DA84202D0914D9C
:10265000A8420DD122F008054A8923F440732A4389
:1026600022F004058A882A438D891D43CB892B4398
:1026700083800483C9888186028430BD70B5028C52
:1026800022F010020284028C8388048B0D8824F4CB
:10269000E6464FF6FF7404EA052535430E8922F01D
:1026A000200204EA061616434A8804EA021232435C
:1026B000694EB04202D06E4EB04215D122F0800673
:1026C0004A8923F4406304EA0212324322F04006AE
:1026D0008A8804EA021232438E8904EA86061E437F
:1026E000CB8904EA8303334383800583C988018748
:1026F000028470BD70B5028C22F480720284028C58
:102700008388848B0D8824F0730425430E894FF64B
:10271000FF7422F4007204EA062616434A8804EA8B
:10272000022232434C4EB04202D0514EB04215D13B
:1027300022F400664A8923F4405304EA0222324319
:1027400022F480668A8804EA022232438E8904EAEF
:1027500006161E43CB8904EA031333438380858323
:10276000C9888187028470BD70B5028C22F48052C2
:102770000284058C8288838B0C8823F4E6464FF60E
:10278000FF7303EA0424344325F400560D8903EA59
:10279000053535434E8803EA06362E432E4DA842B2
:1027A00002D0334DA84205D122F480458A8903EA3C
:1027B00082122A4382808483C988A0F8401006844C
:1027C00070BD828B22F440628283828B4FF6FF734E
:1027D00003EA01210A4382837047828B22F00C02B4
:1027E0008283828B0A4382837047028B22F4406289
:1027F0000283028B4FF6FF7303EA01210A4302832F
:102800007047F0B5048C24F010040484078B048C0A
:102810004FF6FF7527F4734705EA03333B4305EA98
:1028200002221A430C4B05EA011698420ED0104BB7
:1028300098420BD0B0F1804F08D0084B984205D099
:10284000074B984202D0074B984225D124F0200133
:10285000314341F0100124E0002C0140000400400D
:1028600000080040000C0040001000400014004030
:1028700000340140004C0140005001400054014030
:1028800000180040001C00400020004000400140B3
:10289000004401400048014024F0A0030B4343F0F2
:1028A000100102830184F0BD028B22F00C0202832E
:1028B000028B0A430283704770B5048C24F0010434
:1028C0000484058B048C4FF6FF7606EA031313434A
:1028D00025F0F305F84A2B4390420ED0F74A904278
:1028E0000BD0B0F1804F08D0F54A904205D0F54AA0
:1028F000904202D0F44A904202D124F0020201E058
:1029000024F00A020A4342F001010383018470BDEE
:102910002DE9F84F0D4604460888E74FDFF89CC3C1
:10292000DFF89C83DFF89C934988AA882B894FF0B5
:10293000804A48B304282FD04FF6FF7608289346E4
:1029400032D0208C9E4620F480502084A38B208C93
:1029500006EA0132009223F4734306EA0B221A437B
:1029600006EA0E331343BC420AD0644508D05445EE
:1029700006D0444504D04C4502D0D34A944242D1BB
:1029800020F40050009940E02046FFF795FFE988C9
:102990002046BDE8F84F87E72046FFF732FFE98879
:1029A0002046BDE8F84F20E7208C20F4807020847A
:1029B000B4F81CE0208C06EA031306EA01222EF08C
:1029C000F30E43EA0B0343EA0E030092BC420AD023
:1029D000644508D0544506D0444504D04C4502D047
:1029E000B94A944203D120F40070009901E020F428
:1029F0002060084340F48070A3832084E988204647
:102A0000BDE8F84FE9E620F40240084340F4805066
:102A1000A3832084E9882046BDE8F84FD1E62DE95C
:102A2000F0410C46002649880746012501B90226D7
:102A3000A288012A00D1022520882389002838464F
:102A400010D0FFF7DEFEE1883846FFF7CEFE23897F
:102A50002A4631463846FFF72FFFE1883846BDE861
:102A6000F04121E7FFF728FFE1883846FFF71CFF18
:102A700023892A4631463846FFF7C3FEE1883846A7
:102A8000BDE8F041B1E610B50A884B88CC881A43FE
:102A90008B8823431A430B891A434B8989891A432C
:102AA0000A43A0F8442010BD4FF6FF718180002139
:102AB0000180C18041800172704700210180418006
:102AC0008180C180018141818181C1817047002164
:102AD0000180418001228280C180018170470021F4
:102AE000018041808180C180018141818181704765
:102AF0000029018802D041F0010101E021F001012B
:102B000001807047002930F8441F02D041F4004191
:102B100001E0C1F30E0101807047002A828901D0D3
:102B20000A4300E08A4382817047818270471143E3
:102B3000A0F848107047002A828901D00A4300E0BB
:102B40008A4382817047018921F007010181704722
:102B5000028922F070020A430281704700B50346E1
:102B6000FFF7F6FF188940F00700188100BD70B527
:102B700016460D46602904464FF0010231460AD040
:102B8000FFF79AFE29462046FFF7E2FF208940F032
:102B90000700208170BDFFF734FEF3E730B50489EC
:102BA0004FF6FF7505EA03231343E4B20B432343B7
:102BB000038130BD10B50446FFF7F0FF208940F0D7
:102BC0007700208110BD10B50446FFF7E7FF20898C
:102BD00040F48040208110BD0185828270470288C8
:102BE00022F070020A430280704770B50589048B99
:102BF000068C25F007050D434FF6FC410C4040F2D2
:102C000001110C434FF6FF7101EA031126F0220671
:102C10001143314305810483018470BD028B22F08E
:102C200070020A4302837047028B4FF6FF7322F44F
:102C3000E04203EA0121114301837047828B22F0B5
:102C400070020A4382837047828B4FF6FF7322F42F
:102C5000E04203EA01211143818370470029018882
:102C600002D041F0800101E021F080010180704735
:102C70000029818802D041F0040101E021F0040123
:102C8000818070470029818802D041F0080101E06D
:102C900021F00801818070470029818802D041F02D
:102CA000010101E021F0010181807047028B22F0D7
:102CB00008020A4302837047002C0140003401409F
:102CC0000004004000080040000C0040028B4FF65A
:102CD000FF7322F4006203EA012111430183EAE752
:102CE000828B22F008020A438283E4E7828B4FF64C
:102CF000FF7322F4006203EA012111438183DAE7C2
:102D0000028B22F004020A430283D4E7028B4FF6BF
:102D1000FF7322F4806203EA012111430183CAE7B1
:102D2000828B22F004020A438283C4E7828B4FF62F
:102D3000FF7322F4806203EA012111438183BAE721
:102D4000028B22F080020A430283B4E7028B4FF623
:102D5000FF73C2F30E0203EA012111430183AAE7C4
:102D6000828B22F080020A438283A4E7828B4FF693
:102D7000FF73C2F30E0203EA0121114381839AE734
:102D8000028C22F002020A43028494E7028C22F0B1
:102D900008020A4302848EE7028C4FF6FF7322F08A
:102DA000200203EA01111143018484E7028C4FF6EB
:102DB000FF7322F0800203EA0111114301847AE7D4
:102DC000028C4FF6FF7322F4007203EA01211143D3
:102DD000018470E7028C4FF6FF7322F4006203EA6D
:102DE00001211143018466E7028C4FF6FF7322F440
:102DF000005203EA0131114301845CE710B501235D
:102E0000048C8B409C430484038C8A4013430384CA
:102E100010BD10B50423048C8B409C430484038CA8
:102E20008A401343038410BD30B50124058C00F1A2
:102E300018038C40A543058489B108290FD0091FC8
:102E4000C1F34E001844016821F4E04101600168BB
:102E50004FF6FF7303EA02221143016030BD03EB1A
:102E60005100016821F0700101600168F4E7002958
:102E7000018802D041F0020101E021F0020101804D
:102E800019E70029018802D041F0040101E021F096
:102E9000040101800FE70029818802D041F0800100
:102EA00001E021F08001818005E7028822F008021C
:102EB000028002880A430280FDE6828822F07002C6
:102EC000828082880A438280F5E6028922F0070226
:102ED000028102890A430281EDE6028922F0800222
:102EE000028102890A430281E5E68184E3E6818565
:102EF000E1E68186DFE60187DDE68187DBE6A0F893
:102F00004010D8E6028822F44072028002880A4308
:102F10000280D0E6808ECEE6008FCCE6808FCAE6B7
:102F2000B0F84000C7E6808CC5E6008DC3E60246D7
:102F30000020128A0A4200D00120BCE6C943018267
:102F4000B9E602460020138A92890B4202EA010286
:102F500002D0002A00D00120ADE6C9430182AAE6D2
:102F6000374900200860091D0860091D0860091D17
:102F700008603349334814310860704730B5304A2F
:102F80008379016853B313688B431360111D0B6879
:102F90000468A3430B60017911440B680468234360
:102FA0000B60274B083319680468A14319601C1D86
:102FB00021680568A94321604179102905D0114491
:102FC0000A68006802430A6030BD1968026811434C
:102FD0001960216800680143216030BD0079104408
:102FE00002688A43026030BD0021016001710C2239
:102FF000427181717047124910310A6802430A60B8
:10300000704701460E4A0020143212680A4200D06E
:10301000012070470A49143108607047084A014688
:1030200000201268064B0A4014331B680B4202D082
:10303000002A00D001207047014914310860704710
:1030400000040140FFFF0F0001684FF6FE721140BF
:1030500001600021016041608160C1606A496A4A83
:103060000839904203D1486840F00F0006E0664AF4
:103070001432904204D1486840F0F0004860704734
:10308000614A2832904203D1486840F47060F5E705
:103090005D4A3C32904203D1486840F47040EDE70D
:1030A000594A5032904203D1486840F47020E5E715
:1030B000554A6432904203D1486840F47000DDE71D
:1030C000514A7832904203D1486840F07060D5E7A9
:1030D0004E4A111F904203D1086840F00F0006E0ED
:1030E0004A4A1432904204D1086840F0F000086067
:1030F0007047464A2832904203D1086840F4706015
:10310000F5E7424A3C32904203D1086840F47040EF
:10311000EDE73E4A50329042EAD1086840F4702010
:10312000E5E730B5026847F6F0739A430C6A8B689E
:103130002343D1E904452C4323438C692343CC69C1
:1031400023434C6A23438C6A234313430360CA68B6
:1031500042600A6882604968C16030BD0021016038
:1031600041608160C160016141618161C161016251
:103170004162816270470029016802D041F001017B
:1031800002E04FF6FE72114001607047002A0268AB
:1031900001D00A4300E08A430260704741607047F3
:1031A000406880B2704702460020D10002D517491E
:1031B000083901E0144908390968114200D001209A
:1031C0007047C10003D51149091F086070470E49B7
:1031D00008394860704702460020D10002D50B49EB
:1031E000083901E0084908390968114200D0012076
:1031F0007047C10003D50549091F0860704702499F
:103200000839486070470000080002400804024086
:1032100000F108014FF0FF32C0E90112C160016105
:1032200000210160704700210161704742684A60D7
:1032300093688B6093685960916008610168491CCC
:103240000160704730B50C68621C02D000F10802C2
:1032500002E0026904E01A4653681D68A542FAD9E3
:1032600053684B6099608A60516008610168491C2D
:10327000016030BDD0E9013201699A60D0E90123D3
:103280005A604A68824201D182684A600022026123
:103290000868401E0860704770B50D46040005D1EF
:1032A00040F21B12F2A1F7A003F0D8FA02F0ECF9F9
:1032B000D4E90F20216802FB001161600021A163A5
:1032C0002168A1600A46D4E90F01401E00FB0121DC
:1032D000E16021464FF0FF3001F8440F487004F1DF
:1032E00010004DB1FFF794FF04F12400FFF790FFA9
:1032F00002F0E4F9012070BD21690029F8D001F045
:10330000A3FA0028F4D0E3494FF080500860BFF3DF
:103310004F8FBFF36F8FEBE72DE9F04117460E4655
:10332000050005D14FF4C472D1A1D6A003F096FADE
:10333000BEB105FB06F0543002F056FA04000ED080
:1033400004F154007EB12060C4E90F5620460121EB
:10335000FFF7A2FF84F8507000212046A164BDE869
:10336000F0810020E7E72460EEE72DE9F041856B6E
:10337000174604460026026C82B1C7B1E06802F02D
:103380007FFBE168206C091AE1602268914202D259
:103390006168081AE060022F16D017E02068A8B90B
:1033A000606801F062FB0646002060600EE0A068E5
:1033B00002F066FB216CA0680844A0606168884246
:1033C00004D32068A06001E005B16D1E6D1CA563EB
:1033D0003046C4E72DE9F3410F4600980026846C7F
:1033E0002CB940F6CE12A2A1A6A003F037FAA06B2A
:1033F000E16B884205D340F6CF129DA1A1A003F056
:103400002DFAA06BE16B88420CD294F945503A46F4
:1034100069462046FFF7A9FF0646681C05D06D1CCB
:1034200084F845503046BDE8FC81606A0028F9D038
:1034300004F1240001F008FA0028F3D00126F1E796
:103440002DE9F041044602F01FF994F9455004F1CA
:10345000240610E0A06C20B100212046FFF7BAFF3F
:1034600004E0606A48B1304601F0EEF908B101F0BD
:10347000A4FA6D1E6DB2002DECDC4FF0FF3684F81F
:10348000456002F01BF902F0FFF894F9445004F192
:10349000100709E0206948B1384601F0D5F908B1B4
:1034A00001F08BFA6D1E6DB2002DF3DC84F84460E0
:1034B000BDE8F04102F002B92DE9FF4F83B0994613
:1034C0008B4604004FF0000605D140F2D92268A1D6
:1034D0006CA003F0C3F9BBF1000F07D1206C28B139
:1034E00040F2DA2262A167A003F0B8F9B9F1020F45
:1034F00008D1E06B012805D040F2DB225CA161A07D
:1035000003F0ACF901F068FA38B9059828B140F237
:10351000DE2257A15BA003F0A1F94FF0000A4FF0A3
:103520008057DFF8708102F0AFF8A06BE16B884242
:1035300006D3B9F1020F03D0059800B316B325E006
:103540004A4659462046FFF710FFA16C21B1494673
:103550002046FFF73FFF05E0616A19B104F124003E
:1035600001F072F928B1C8F80070BFF34F8FBFF3B4
:103570006F8F02F0A3F8012007B0BDE8F08F02F0D2
:103580009DF821E0684601F0CEF9012602F096F898
:1035900000F09BFD02F078F894F94400401C01D142
:1035A00084F844A094F94500401C01D184F845A05A
:1035B00002F084F805A9684601F0C6F930B120464A
:1035C000FFF73EFF00F0F3FC0020D5E702F05CF8C7
:1035D000A06BE16B884201D1012500E0002502F0DB
:1035E0006DF895B104F11000059901F0D4F820466A
:1035F000FFF726FF00F0DBFC002894D1C8F800702C
:10360000BFF34F8FBFF36F8F8DE72046FFF718FF93
:1036100000F0CDFC87E710B5024600210120FFF73E
:103620007BFE041E07D00021416001600B460A4664
:10363000C160FFF741FF204610BD10B5040005D161
:1036400040F241220AA10FA003F008F901F0C1F9EC
:103650006168884220D1E068401EE06005D1002307
:103660001A4619462046FFF727FF012010BD00002B
:103670002E2E5C4672656552544F535C71756575AC
:10368000652E63004572726F723A25732C25640DA6
:103690000A00000004ED00E00020E7E730B4026C0F
:1036A0000B46002A0BD0C1681144C1604468A14296
:1036B00001D30168C16030BC184602F0E1B930BCEA
:1036C00070472DE9FF4F83B09B468A4604004FF0B8
:1036D000000607D140F2DC42AFF26C01AFF25C00B1
:1036E00003F0BCF8BAF1000F09D1206C38B140F2F8
:1036F000DD42AFF28401AFF2740003F0AFF801F0E5
:103700006BF948B9059838B14FF49C62AFF2A0014B
:10371000AFF2900003F0A2F84FF000094FF080578D
:10372000DFF8188601F0B0FFA56B35B3514620468F
:10373000E668FFF7B3FFBBF1000F11D0E660606AE7
:1037400050B104F1240001F07FF828B1C8F80070EE
:10375000BFF34F8FBFF36F8F01F0B0FF01200BE776
:103760006D1EA563206810B901F02FFA6060206912
:103770000028F1D004F11000E5E7059808B11EB16A
:1037800006E001F09BFF27E0684601F0CCF8012637
:1037900001F094FF00F099FC01F076FF94F94400E9
:1037A000401C01D184F8449094F94500401C01D19B
:1037B00084F8459001F082FF05A9684601F0C4F83D
:1037C000002820460AD0FFF73BFE00F0F0FB204621
:1037D00000F0A6FA0028A5D00020CDE600F0A0FA5F
:1037E000D8B1206830B901F04FFF606801F0FFF8F0
:1037F00001F064FF04F12400059900F0CCFF20469D
:10380000FFF71EFE00F0D3FB00288BD1C8F8007034
:10381000BFF34F8FBFF36F8F84E72046FFF710FE93
:1038200000F0C5FB7EE770B50D46040007D14FF4EC
:103830001E72AFF2C411AFF2B41003F00FF801F032
:10384000C8F86168884204D1E068401CE06001204B
:1038500070BD00232A4619462046FFF732FF002894
:10386000F6D0E168491CE16070BD70B50C460500FA
:1038700007D140F2BD22AFF20821AFF2F81002F0FA
:10388000EDFFAC4207D940F2BE22AFF21C21AFF2ED
:103890000C2002F0E3FF022200212846FFF73CFD46
:1038A000002800D0846370BD2DE9F0479846154686
:1038B0008946040007D140F29F32AFF24C21AFF2AB
:1038C0003C2002F0CBFFB9F1000F09D1206C38B1D8
:1038D0004FF46872AFF26821AFF2582002F0BEFFD9
:1038E000B8F1020F0AD1E06B012807D040F2A132F3
:1038F000AFF28421AFF2742002F0B0FF01F003FFB9
:103900002020EFF3118780F31188BFF34F8FBFF3AF
:103910006F8FA06BE16B884207D3B8F1020F04D020
:10392000002087F31188BDE8F08794F9456042468E
:1039300049462046FFF719FD701C04D0761C84F818
:1039400045600120EDE7A06C012620B141462046EC
:10395000FFF740FD06E0606A0028F2D004F1240081
:1039600000F072FF0028ECD0002DEAD02E60E8E7CE
:103970002DE9F0410D46040007D140F23C42AFF280
:103980001031AFF2003002F069FF206C38B14FF413
:103990008862AFF22431AFF2143002F05FFF20688A
:1039A00048B9606838B140F24542AFF23C31AFF2FD
:1039B0002C3002F053FF01F0A6FE2020EFF3118619
:1039C00080F31188BFF34F8FBFF36F8FA16BE06B54
:1039D00088421FD994F94500491CA163411C04D0B9
:1039E000401C84F84500012015E0A06C012720B19F
:1039F00000212046FFF7EEFC06E0606A0028F2D0C6
:103A000004F1240000F020FF0028ECD0002DEAD0C3
:103A10002F60E8E7002086F31188A0E42DE9F04745
:103A200090468946040007D14FF4B462AFF2C0312A
:103A3000AFF2B03002F012FFB9F1000F09D1206CE3
:103A400038B140F2A152AFF2D831AFF2C83002F033
:103A500005FF01F058FE2020EFF3118780F3118855
:103A6000BFF34F8FBFF36F8FA66BF6B194F944503D
:103A700049462046FFF712FE761EA663681C04D056
:103A80006D1C84F84450012010E020690028FAD011
:103A900004F1100000F0D8FE0028F4D0B8F1000FB7
:103AA000F1D00121C8F80010EDE7002087F311885C
:103AB00039E72DE9F0410E46040007D140F2FC52EF
:103AC000AFF25441AFF2444002F0C8FE4EB9206C50
:103AD00048B140F2FD52AFF26841AFF2584002F0F7
:103AE000BDFE206C38B940F2FE52AFF27C41AFF21D
:103AF0006C4002F0B3FE01F006FE2020EFF31185CA
:103B000080F31188BFF34F8FBFF36F8FA06B30B17D
:103B100031462046E768FFF7C1FD0120E76085F3E5
:103B200011881CE410B5040007D140F22F62AFF2F7
:103B3000C041AFF2B04002F091FE01F0A5FDA46BD0
:103B400001F0BCFD204691E510B5040007D140F21C
:103B50004162AFF2E441AFF2D44002F07FFE01F0E7
:103B600093FDD4E90E10441A01F0A8FD20467DE52E
:103B700010B5040007D140F25162AFF20C51AFF220
:103B8000FC4002F06BFEA06B70E56D4A002102EB79
:103B9000C1035B68834206D1002042F8310002EB8A
:103BA000C10148607047491C0829F0D3704710B51F
:103BB000040007D140F25D62AFF24C51AFF23C50CD
:103BC00002F04CFE2046FFF7E0FF2046BDE8104023
:103BD00001F075BEC06C7047C164704790F850002A
:103BE000704710B5040007D140F29372AFF28051D4
:103BF000AFF2705002F032FEA06B08B1002035E544
:103C0000012033E510B5040007D140F2BA72AFF2DB
:103C1000A051AFF2905002F021FEA06BE16B884200
:103C200001D1012022E5002020E510B5444B0022FF
:103C300053F832401CB1521C082AF9D316E543F858
:103C4000321003EBC201486010E510B500243C4A75
:103C5000214602EBC1035B68834202D152F8314036
:103C600002E0491C0829F4D32046FFE470B515464C
:103C70000E46044601F008FD94F944100020491C4A
:103C800001D184F8440094F94510491C01D184F80D
:103C9000450001F013FDA06B28B92A46314604F116
:103CA000240000F0B6FD2046BDE87040FFF7C8BB19
:103CB00000220421FFF730BB70B50D46044601F029
:103CC000E3FCA06C08B9A06B08B1002401E0A56476
:103CD000012401F0F3FC204670BD10B50446806C51
:103CE000884201D1A06B08B10020BFE401F0CCFCF8
:103CF0000020A06401F0E2FC0120B7E408B5002335
:103D00000A4669460093FFF7DCFC009808BD08B539
:103D100000210A4600916946FFF780FE009808BD21
:103D200010B5044601F0B0FCA06B20B1002401F0F6
:103D3000C5FC20469AE40124F9E7000004ED00E008
:103D4000E00900202DE9F041054601F09DFCFE4E02
:103D5000B068401CB0603068FC4F10B1706930B37F
:103D60002BE03560B068012827D1002404EB8400E3
:103D700007EB8000FFF74CFA641C202CF6D3F448C4
:103D8000FFF746FAF2481430FFF742FAF0482830BD
:103D9000FFF73EFAEE483C30FFF73AFAEC48503075
:103DA000FFF736FAEA4870631430B06305E0306814
:103DB000E96AC06A884200D83560706A0121401CF7
:103DC00070626864E86A326981401143316100EBD6
:103DD000800007EB8000291DFFF728FA01F06EFC38
:103DE000706900280CD03068E96AC06A884207D23E
:103DF000D8494FF080500860BFF34F8FBFF36F8FEB
:103E0000BDE8F0812DE9FF5F8346DDE90E87994625
:103E100016468A46900001F0E7FC05001AD05C20A7
:103E200001F0E2FC040012D025630021CDE902413B
:103E3000CDE900874B4632465146584601F087F897
:103E40002046FFF77FFF012004B0BDE8F09F284621
:103E500001F035FD4FF0FF30F6E770B5044601F094
:103E600013FCB94D04B92C68201DFFF703FA58B9AB
:103E7000E06AB64A00EB800152F8211021B9012115
:103E80008140286988432861A06A18B104F11800AC
:103E9000FFF7F0F9686A401C68622868844208D11C
:103EA000AB48211D3C30FFF7C1F96868401C6860D1
:103EB00007E0A868401EA860204601F0A1F801F0C4
:103EC00092F801F0FBFB6869002812D02868844250
:103ED0000FD1286B28B140F265429FA1A3A002F048
:103EE000BDFC9C494FF080500860BFF34F8FBFF37B
:103EF0006F8F70BD2DE9F041934F0026386B38B1BC
:103F0000B869401CB861F86900B10126304677E70E
:103F1000FD686D1CFD6011D1786B006828B140F61A
:103F2000D9128DA191A002F099FC786BB96B7963DD
:103F3000B863386A401C386201F055F8B86ADFF897
:103F40000C82854209D3786B006880B1786BC068B9
:103F5000C468606885420DD2B8623868C06A00EBF8
:103F6000800158F821000128CDD90126CBE74FF078
:103F7000FF30F1E7201DFFF77DF9A06A18B104F1C9
:103F80001800FFF777F9E06A01213A69814011438F
:103F9000396100EB800108EB8100211DFFF746F934
:103FA000E06A3968C96A8842CDD30126CBE72DE99A
:103FB000F047654D00242746286B28B94FF4FD6271
:103FC00065A16AA002F04AFC01F05EFB286B401E6E
:103FD0002863286BF0BBA8685D4928310126C8B367
:103FE000DFF868918846D8F80010E9B1D8F80C00DD
:103FF000C46804F11800FFF73DF9201DFFF73AF9F6
:10400000E06A2A6906FA00F11143296100EB800198
:1040100009EB8100211DFFF709F9E06A2968C96AE7
:104020008842E0D3EE61DEE70CB100F0DCFFAC6962
:104030003CB1FFF75FFF00B1EE61641EF9D10020D3
:10404000A861E86930B14349012738070860BFF328
:104050004F8F00E001E0BFF36F8F01F02FFB384678
:10406000BDE8F0872DE9F041374E0F460446F5686C
:104070003068001DFFF7FEF838B9306890F82C1052
:1040800001208840316981433161601C08D13FB112
:104090003168BDE8F0412E485030091DFFF7C6B821
:1040A00030682C44AC424460316805D2B06BBDE846
:1040B000F041091DFFF7C6B8706B091DFFF7C2F884
:1040C000B06A844200D2B4629AE61F48016B491C70
:1040D000016370472DE9F0410E4605004FF00004E2
:1040E00005D140F279421CA120A002F0B7FB2EB905
:1040F00040F27A4218A11DA002F0B0FB124F386BBB
:1041000028B140F27B4214A118A002F0A7FBFFF7F0
:10411000DCFFFA6828688119904202D9884202D8E7
:1041200004E0884201D8914200D9012429601CB1E1
:10413000881A0021FFF796FFFFF739FF002822D1E8
:104140004FF08050034919E070000020200A002041
:10415000A00C002004ED00E02E2E5C467265655236
:10416000544F535C7461736B732E63004572726FAE
:10417000723A25732C25640D0A0000000860BFF315
:104180004F8FBFF36F8F3BE610B5040014D0FE498C
:10419000096B39B140F2CF42AFF24401AFF23400C3
:1041A00002F05CFBFFF791FF00212046FFF75AFF6A
:1041B000FFF7FDFE002807D1F4494FF0805008605A
:1041C000BFF34F8FBFF36F8F10BD70B5050007D1E0
:1041D00040F2FB42AFF28001AFF2700002F03EFB12
:1041E000E94E3068854201D1002070BD01F04CFAE3
:1041F0006C6901F063FA706B844202D0B06B844248
:1042000001D1022070BDE248844204D1A86A00288E
:10421000F7D1032070BDDE481438844202D00CB1BF
:10422000012070BD042070BD10B5044601F02CFAC9
:104230000CB9D5480468E46A01F040FA204610BD84
:1042400010B5044601F05FFA2020EFF3118180F3EE
:104250001188BFF34F8FBFF36F8F0CB9CA48046842
:10426000E06A81F3118810BD2DE9F04100260D466A
:104270000446202908D34FF4B062AFF22411AFF204
:10428000141002F0EBFA1F2501F0FEF9BE4F04B93D
:104290003C68E06CA8423FD03968854206D98C4220
:1042A00007D03968C96AA94202D902E08C4200D11C
:1042B0000126E16A8846884200D1E562E564A0698A
:1042C000002802DBC5F12000A061B24D08EB880098
:1042D000616905EB8000814215D1201DFEF7CAFF00
:1042E000012120B93A6901FA08F082433A61E06A93
:1042F0003A6981401143396100EB800005EB800091
:10430000211DFEF793FF3EB1A0494FF08050086099
:10431000BFF34F8FBFF36F8FBDE8F04101F0CEB90F
:1043200070B5994D286B10B10120E86170BD002077
:10433000E8612869974EB0FA80F0C0F11F0000EBE9
:10434000800456F8240038B940F6F622AFF2F8118E
:10435000AFF2E81002F082FA06EB840000F10802E6
:10436000416849684160914201D149684160C8682B
:10437000286070BD70B5044601F086F9824D04B91D
:104380002C68201DFEF776FF58B9E06A814A00EBE1
:10439000800152F8211021B9012181402869884308
:1043A0002861A06A18B104F11800FEF763FF211D0F
:1043B0007748FEF73BFF01F081F9686928B101F009
:1043C00063F900F010FE01F079F92868844213D1F6
:1043D000686990B1286B38B140F25762AFF288211A
:1043E000AFF2782002F03AFA68494FF08050086046
:1043F000BFF34F8FBFF36F8F70BD6548A96800682A
:10440000884202D10020286070BDBDE8704087E777
:1044100070B50025040007D140F28162AFF2C821D7
:10442000AFF2B82002F01AFA59496069884205D102
:10443000A06A2839884201D000B90125284670BDFC
:1044400070B504002BD0504D2868844231D001F063
:104450001BF92046FFF7DCFFE8B1201DFEF70AFF3D
:10446000E06A01212A69814011432961494900EB31
:10447000800001EB8000211DFEF7D8FEE06A29686C
:10448000C96A884207D341494FF080500860BFF3A2
:104490004F8FBFF36F8FBDE8704001F00FB940F24E
:1044A000AB62AFF24C31AFF23C30BDE8704002F08D
:1044B000D5B970BD2DE9F0410026040007D140F2C6
:1044C000E262AFF26C31AFF25C3002F0C7F901F09A
:1044D0001AF92020EFF3118580F31188BFF34F8F75
:1044E000BFF36F8F2046FFF793FFF0B1264F386B75
:1044F00020B1274804F11801283814E0E06A39682F
:10450000C96A884200D30126201DFEF7B3FEE06A87
:1045100001213A698140114339611E4900EB800055
:1045200001EB8000211DFEF781FE85F311883046E6
:1045300066E4184E4FF08054144D00F06BFD306867
:104540000128FAD92C60BFF34F8FBFF36F8FF4E7C8
:104550001CB50D4800242C30CDE9004023468222B2
:104560000DA10F48FFF74EFC012803D100F06DFEAE
:1045700001281BD0401C2BD140F28472AFF228419D
:10458000AFF2184002B00DE07000002004ED00E032
:10459000F00C0020200A002049444C450000000097
:1045A00033450008BDE8104002F058B9202080F3E0
:1045B0001188BFF34F8FBFF36F8FFA484FF0FF3171
:1045C000816201214161C460BDE81C4001F01AB85C
:1045D0001CBD202080F31188BFF34F8FBFF36F8F76
:1045E000F0490020486101F043B8EE48C0687047C8
:1045F00010B501F088F8EB48C06810BDE948806844
:10460000704710B510B104461CB10AE0E5480468D3
:10461000FAE740F68C02AFF2C041AFF2B04002F0D0
:104620001DF904F1340010BD2DE9F0471E469146F6
:104630000C4607000ED0054605F13400C4E90050D1
:10464000E86A2061286BE061686CA060207B032829
:1046500003D00AE0D3480568EEE7FFF736FDA86A05
:1046600008B102202073FFF7A2FC4FF00008E86CAD
:10467000C4E90508052E01D0267303E03846FFF78C
:10468000A4FD2073B9F1000F0AD00021286B01E0CE
:10469000401C491C0278A52AFAD088082084DFE44F
:1046A000A4F82080DCE42DE9F047814608689246B2
:1046B0000C460025F8B1486801F1080640684860DA
:1046C000B04201D140684860D0F80C806068426810
:1046D0006260B24201D151686160606805EBC5015A
:1046E00009EB8101C768534601223846FFF79CFF5A
:1046F0006D1C4745EAD12846B2E42DE9F04717463C
:104700000A46064600242025FFF7DFFCDFF89482E6
:10471000D8F8080082423AD3DFF88C926D1E05EB80
:10472000850104EBC40009EB810106EB8000012246
:10473000FFF7B9FF0444002DF0D104EBC40006EBF1
:10474000800002224546D8F83410FFF7ACFF04443D
:1047500004EBC40006EB80000222A96BFFF7A3FF65
:10476000044404EBC40006EB800004228F49FFF7E9
:104770009AFF04448D4904EBC40006EB8000032239
:104780001431FFF790FF04440FB100203860FFF7A9
:104790000EFC204664E470B50D46040007D140F6D7
:1047A0000632AFF24C61AFF23C6002F057F87D4840
:1047B000016820461831FEF745FD2846BDE87040E7
:1047C00001214FE42DE9F04117460E46050007D1BF
:1047D00040F61732AFF28061AFF2706002F03EF83F
:1047E000704C206B38B940F61B32AFF29461AFF2D7
:1047F000846002F033F8216846F000408861216847
:1048000028461831FEF712FD3846BDE8F041012177
:1048100028E470B514460E46050007D140F6313243
:10482000AFF2CC61AFF2BC6002F018F85D480168ED
:1048300028461831FEF7FAFC0CB14FF0FF3621463E
:104840003046BDE870400DE42DE9F041C068C46811
:104850003CB940F66132AFF20071AFF2F06001F0A6
:10486000FDFF04F118000746FEF704FD4D4D286BCF
:10487000012660B14D4839461438FEF7D7FCE06A8E
:104880002968C96A884212D90120EE611CE4201D02
:10489000FEF7F0FCE06A2A6906FA00F1114329618B
:1048A000414900EB800001EB8000211DE5E700207D
:1048B0000AE470B53B4D06460C46286B38B940F605
:1048C0009932AFF26C71AFF25C7001F0C7FF44F047
:1048D00000403060F4683CB940F6A132AFF2887114
:1048E000AFF2787001F0BAFF3046FEF7C3FC201D2E
:1048F000FEF7C0FCE06A01262A6906FA00F11143BE
:104900002961294900EB800001EB8000211DFEF7A1
:104910008DFCE06A2968C96A884202D90120EE61EB
:1049200070BD002070BD10B5040007D140F6C13243
:10493000AFF2DC71AFF2CC7001F090FF1948016A60
:104940002160C068606010BD70B50D46040007D1DD
:1049500040F6CB32AFF60001AFF2F07001F07EFF0F
:104960003DB940F6CC32AFF61001AFF6000001F0D1
:1049700075FF00F089FE0B4AD06829684B1C0FD0E8
:104980002368126A934202D06268824210D9626838
:10499000801A88420CD2081A28602046FFF7C3FF0D
:1049A000002406E070000020200A0020DC0C00201B
:1049B000012400F083FE204670BDFF490120C8613C
:1049C0007047002800D0806C7047002800D08164B8
:1049D0007047F94800687047F748416919B1006BA2
:1049E00018B100207047012070470220704770B551
:1049F000040039D0F04DE06A2968C96A884233D290
:104A0000A069002804DB2868C06AC0F12000A0610A
:104A1000E06AEA4E00EB8000616906EB80008142AB
:104A20001FD1201DFEF726FC012150B9E06A00EBE2
:104A3000800256F8222022B92A6901FA00F0824346
:104A40002A612868C06AE0622A69814011432961AD
:104A500000EB800006EB8000211DBDE87040FEF7F2
:104A6000E5BB2868C06AE06270BD70B504004FF015
:104A7000000640D0D04D2868844207D040F6C76277
:104A8000AFF62C11AFF61C1001F0E8FE206D38B91E
:104A900040F6C962AFF64011AFF6301001F0DEFE0D
:104AA000206D401E2065E26CE16A914223D010BB6C
:104AB000201DFEF7DFFBC149012250B9E06A00EB7F
:104AC000800351F8233023B92B6902FA00F08343A5
:104AD0002B61E06CE062C0F12000A061E06A2B690C
:104AE00082401A432A6100EB800001EB8000211D07
:104AF000FEF79CFB0126304670BD2DE9FF410027E3
:104B000005460770AC4881680291806800EBC000E0
:104B1000800000F069FE06004BD000220299FFF7EA
:104B2000ECFDCDE9020738463AE000EBC00006EBA9
:104B30008001087B01280FD002280FD003280FD056
:104B400004280FD000244968284601F006F82846BA
:104B500000F0E4FF202109E05224F4E74224F2E7C8
:104B60005324F0E74424EEE72954401C0F28FBD3DC
:104B70002F540544039800EBC00006EB80008268C8
:104B8000018CCDE90012036922468DA1284601F06F
:104B90008DFE284600F0C2FF05440398401C039098
:104BA00002998842C1D304B03046BDE8F04100F01C
:104BB00086BEBDE8FF81804908680A688069D26ABC
:104BC0000968C2F120028A6170477B49086818B100
:104BD0000868026D521C02650868704770B50C4683
:104BE000064600F051FD744D2868406D80B9296873
:104BF000012081F858005CB101212046FFF732FA0C
:104C000073494FF080500860BFF34F8FBFF36F8F31
:104C100000F054FD00F038FD2868446D002034B1E8
:104C200016B12968486502E02A68611E5165296845
:104C300081F8580000F042FD204670BD2DE9F0419A
:104C40001E4615468846074600F01EFD5A4C206851
:104C500090F85800022814D02068416DB94341658E
:104C60002168012081F858005EB101213046FFF72C
:104C7000F9F957494FF080500860BFF34F8FBFF3E9
:104C80006F8F00F01BFD00F0FFFC15B12068406D38
:104C90002860206890F8580001280DD02068416DE8
:104CA00021EA0801416501252168002081F85800AA
:104CB00000F004FD28463BE40025F5E72DE9F0412E
:104CC0001F4690460D4604004FF0010607D141F201
:104CD000FD02AFF67C31AFF66C3001F0BFFD00F0A5
:104CE000D3FC0FB1606D386094F85800022184F84D
:104CF0005810B8F1050F0ED2DFE808F00D03060CCE
:104D00000A00616D294301E0616D491C616502E0A3
:104D1000022803D06565012802D02AE0002628E099
:104D2000201DFEF7A7FA244DE06A01212A6981407F
:104D300011432961214900EB800001EB8000211D16
:104D4000FEF774FAA06A38B141F23512AFF6F831C5
:104D5000AFF6E83001F082FDE06A2968C96A88424E
:104D600007D91B494FF080500860BFF34F8FBFF346
:104D70006F8F00F0A3FC304688E52DE9F0471F4611
:104D8000DDF8209092460D4604004FF0010807D14F
:104D900041F26812AFF64041AFF6304001F05EFDDF
:104DA00000F0B1FC2020EFF3118680F31188BFF3EF
:104DB0004F8FBFF36F8F0DE070000020200A00209E
:104DC0000925630925750925750925750D0A000052
:104DD00004ED00E00FB1606D386094F858000221D6
:104DE00084F85810BAF1050F0ED2DFE80AF00D036F
:104DF000060C0A00616D294301E0616D491C616583
:104E000002E0022803D06565012803D031E04FF0AD
:104E100000082EE0A06A38B141F2AF12AFF6C841E7
:104E2000AFF6B84001F01AFD8D4D286B012778B11F
:104E300004F118018B48FEF7F9F9E06A2968C96A9C
:104E4000884216D9B9F1000F12D0C9F8007010E0ED
:104E5000201DFEF70FFAE06A2A6907FA00F11143F4
:104E6000296100EB8001804800EB8100211DE2E711
:104E7000EF6186F31188404611E42DE9F041884640
:104E8000040007D141F2E312AFF63451AFF62450DB
:104E900001F0E4FC00F037FC2020EFF3118780F3F1
:104EA0001188BFF34F8FBFF36F8F94F85800022122
:104EB00084F85810616D491C616501282ED1A06AE3
:104EC00038B141F20922AFF67051AFF6605001F0EF
:104ED000C5FC634D286B012678B104F118016148C7
:104EE000FEF7A4F9E06A2968C96A884216D9B8F1C0
:104EF000000F12D0C8F8006010E0201DFEF7BAF9CC
:104F0000E06A2A6906FA00F111432961564900EB6B
:104F1000800001EB8000211DE2E7EE6187F311883C
:104F2000B4E410B558B1044600F0AEFB94F8580054
:104F3000022807D0002400F0C1FB204610BD4848DD
:104F40000468F1E7002084F858000124F3E72DE914
:104F5000F0470E46DDE909841746824691009946DE
:104F6000089DA522206B00F0ABFD6FF00301206BC4
:104F700001EB8701084420F00707780705D040F2CD
:104F80002B323AA13EA001F069FC00202218315CCE
:104F900082F83410315C11B1401C1028F6D3002681
:104FA00084F84360202D00D31F25E562C4E9135621
:104FB000201DFEF738F904F11800FEF734F92461DA
:104FC000C5F120006462A061666584F858604A46B5
:104FD0005146384600F0F9FA2060B8F1000F01D0D0
:104FE000C8F8004048E71E48416B096829B1416B89
:104FF000C968C9684968816270474FF0FF31FAE7B4
:1050000010B50446006B00F05AFC2046BDE8104085
:1050100000F055BC70B5134E114D14361CE0FFF76F
:1050200054F8306820B10024FEF7C1FFA4B901E0B4
:105030000124F9E700F028FBF068C468201DFEF7A2
:1050400019F9A868401EA8606868401E686000F0F2
:1050500035FB2046FFF7D4FF68680028DFD170BD1C
:1050600070000020C80C0020200A00202E2E5C4674
:1050700072656552544F535C7461736B732E630099
:105080004572726F723A25732C25640D0A00000078
:1050900070B500244160F74D0061914206D8D11AE5
:1050A0008269914206D2011D286907E09A4203D223
:1050B000994201D3012403E0011DE868FEF7C2F81C
:1050C000204670BD2DE9FF479946DDF830A0904697
:1050D0000D4606004FF0000705D14FF4D372E6A14C
:1050E000EBA001F0BBFBE34C206880B1CDE9005898
:1050F0000296062D11DAFFF76FFC02284FF000032D
:1051000009D0002269462068FEF7D6F9074604B0A8
:105110003846BDE8F0875246F4E700234A46694620
:10512000FEF7C2FBF2E770B586B0D24E53E00198AD
:10513000002806DADDE90301029A90470198002869
:1051400049DB039C606910B1201DFEF793F805A8A8
:1051500000F04DF9054601980A283CD2DFE800F03E
:105160000505053B273805053B270298A16903463D
:1051700001442A462046FFF78BFF00282BD0616AA6
:1051800020468847E069012825D100200090029838
:10519000A1690023421819462046FFF793FFD0B9B2
:1051A00040F22132B4A1BAA001F058FB13E00298FA
:1051B000A06128B94FF44E72AFA1B5A001F04EFB2B
:1051C000A0692B4641191A462046FFF761FF02E00D
:1051D000204600F074FB00231A4601A93068FEF750
:1051E00070FA0028A3D106B070BDA24CE068016837
:1051F00039B1002139B1002000F00BF9FFF793FF1E
:10520000F4E70121F6E7C0680068F5E710B500F0A3
:105210003BFA984C2068A0B9A148FDF7F9FFA048D7
:105220001430FDF7F5FF9E48E06014302061002245
:1052300010210520FEF770F8206010B199A1FEF74B
:10524000F4FCBDE8104000F039BA1CB50024FFF7AB
:10525000DDFF8848006868B186491F20091DCDE937
:10526000000100234FF4827290A19248FEF7CAFD1C
:10527000040005D140F233127FA185A001F0EEFABF
:1052800020461CBD2DE9F0470746994616460D46B7
:105290002C20DDF820A000F0A7FA040014D0B846B6
:1052A0004F46D1462DB94FF4C67283A188A001F0B4
:1052B000D5FAFFF7ABFF04F11801C4F8008081E8CC
:1052C000E002201DFDF7AFFF204622E710B5694C34
:1052D000606828B94FF4E87267A16DA001F0BEFACA
:1052E000606810BD10B5040005D140F2D91262A16A
:1052F00067A001F0B3FAA06910BD10B5040005D194
:1053000040F2E3125CA162A001F0A8FA606810BD4F
:1053100010B5040005D140F2ED1257A15CA001F0D8
:105320009DFA206810BD10B5040005D140F2DA32B4
:1053300051A157A001F092FA00F0A6F9606908B1F6
:10534000012400E0002400F0B9F9204610BD10B59A
:10535000040005D140F2EF3247A14DA001F07EFAE2
:1053600000F092F9246A00F0A9F9204610BD70B54A
:105370000D46040005D140F2FF323FA144A001F0E8
:105380006DFA00F081F92562BDE8704000F096B931
:105390007FB56FF0010401AE009486E80700354840
:1053A0001D4600232A4669460068FEF77DFA04B0D0
:1053B00070BD2DE9FF412F4C0746984620681546E1
:1053C0000E4628B940F22B422BA131A001F046FA3B
:1053D0004FF0FF30CDE90007CDE9026500234246DA
:1053E00069462068FEF768F804B0BDE8F08170B542
:1053F0000546FFF7FAF81F4E0446B068844203D210
:1054000000F070F8012000E0002028602046B46021
:1054100070BDF8B50D460646FEF757FE6846FFF725
:10542000E6FF0446009810B1FEF7C1FDF8BD114833
:10543000ADB101690968D9B10025311B2A46006860
:10544000FEF714FCFEF7B3FD0028EFD124494FF01E
:1054500080500860BFF34F8FBFF36F8FF8BDA64237
:10546000EBD8FEF7A4FD2146304600F06EF8F8BDFB
:105470000125E2E7AC0000202E2E5C4672656552E5
:10548000544F535C74696D6572732E6300000000A5
:105490004572726F723A25732C25640D0A00000064
:1054A000040D0020546D725100000000546D7220F4
:1054B00053766300EB5100082E2E5C4672656552F0
:1054C000544F535C74696D6572732E630000000065
:1054D0004572726F723A25732C25640D0A00000024
:1054E00004ED00E0F8B52F4E27E0C068C4680568F9
:1054F000201DFDF7BFFE616A20468847E06901284C
:105500001BD1A0692844A84206D924616060211DEE
:10551000F068FDF797FE10E000200346014600907A
:105520002A462046FFF7CEFD38B940F29232AFF25C
:105530007801AFF2640001F091F9F0680168002988
:10554000D3D13169C6E90310F8BDF8B50546154851
:105550000E46C068C068C468201DFDF78BFEE06978
:10556000012818D1A0692B46411932462046FFF781
:105570008FFD80B100200346014600902A46204658
:10558000FFF7A0FD38B94FF40272AFF2D401AFF2C9
:10559000C00001F063F9616A01B02046BDE8F04047
:1055A00008470000AC00002069484068401C04D057
:1055B000F42268A172A001F051F9202080F3118833
:1055C000BFF34F8FBFF36F8FFEE710B5031F4FF090
:1055D00080741C601B1F21F001011960191F6C4BA6
:1055E0000B60143940380A6010BD6A484FF47A7174
:1055F0000068B0FBF1F14FF0E020491E4161072146
:10560000016170471CB5644908780190FF2008705B
:1056100008788DF800009DF800004D4A00F0200049
:1056200010700720906007E09068401E90609DF821
:10563000000040008DF800009DF800000006F3D443
:10564000107A000200F4E0609060019808705348FE
:10565000016841F470010160016841F0704101602E
:10566000FFF7C3FF00205060FAF77EFD00201CBD4D
:1056700037484068B0F57A7F05D04FF4B57235A150
:105680003FA001F0EBB87047202080F31188BFF3F2
:105690004F8FBFF36F8F2E494868401C4860012828
:1056A0000BD13E481C38006810F0FF0F05D04FF4B6
:1056B000BD7228A132A001F0D1B8704710B5244CBA
:1056C000606828B940F2811222A12DA001F0C6F82D
:1056D0006068401E606001D180F3118810BD10B574
:1056E000202080F31188BFF34F8FBFF36F8FFEF739
:1056F00001FC20B129494FF080501C39086000207E
:1057000080F3118810BD10B5FAF764FD104C102815
:105710000CD300F1E02090F8F0032178884205D204
:105720004FF42A720BA116A001F098F81B48143808
:105730000068A16800F4E060884207D9BDE8104025
:105740004FF42E7203A10EA001F088B810BD000026
:10575000C00000202E2E5C4672656552544F535C8B
:10576000706F727461626C655C525644535C415256
:105770004D5F434D335C706F72742E630000000008
:105780004572726F723A25732C25640D0A00000071
:10579000A95500082400002000E400E020ED00E00E
:1057A00030B5744900E011460A688242FBD34B6869
:1057B0005C18844203D14068184448600846436836
:1057C0001C18944209D16B4C103C2468A24209D0A9
:1057D00052681A4442600A6812680260814200D02E
:1057E000086030BD0460F9E72DE9F0410546002668
:1057F000FEF76BFC5F4F103F386808B900F098F86F
:10580000F86805424ED1002D4CD0083568070BD002
:1058100005F00700C0F108000544680704D0BF2266
:1058200055A15FA001F01AF8002D3BD078688542A1
:1058300038D850490846046801E0214604466068AB
:10584000A84202D220680028F7D13868B8468442BE
:1058500028D00E682068086060680836401B102851
:105860000ED96719780704D0EC2243A14CA000F0B0
:10587000F5FF6068401B786038466560FFF790FF71
:105880006168D8F804004246401AC8F80400D8F805
:105890000830984200D29060D8F80C0001430020F4
:1058A000C4E90001FEF783FB700705D04FF4967240
:1058B00031A13BA000F0D2FF3046BDE8F08170B5C9
:1058C00000282BD02B4DA0F10804103D6068E9683A
:1058D000084205D14FF4A07227A131A000F0BEFF0D
:1058E000206828B140F2411223A12DA000F0B6FF9C
:1058F0006068E968084211D02268002A0ED1884306
:105900006060FEF7E2FB60686968084468602046F2
:10591000FFF746FFBDE87040FEF749BB70BD154874
:1059200010384068704713481038806870477047D7
:105930001F484FF4A041420706D0C01D1C4920F06B
:105940000700411AC1F5A0410A4A00230144C2E9F7
:1059500000030839103A21F0070111604B600B6019
:105960000B1AC0E9001393604FF000405360D06001
:1059700070470000DC0000202E2E5C4672656552E8
:10598000544F535C706F727461626C655C4D656DF1
:105990004D616E675C686561705F342E6300000066
:1059A0004572726F723A25732C25640D0A0000004F
:1059B0002C0D00200020704730B50B46014600201A
:1059C0002022012409E021FA02F59D4205D303FAC1
:1059D00002F5491B04FA02F52844151EA2F1010242
:1059E000F1DC30BD2DE9FE43994615468846074651
:1059F00001AC022942D3002D40D000200290A8F132
:105A000001004FF0FF36009022E000FB057201FB21
:105A1000057011464A469047002805DC54F82600D8
:105A2000304444F8260013E060682A4600FB057104
:105A300054F8040C00FB057007E00B7890F800C0E8
:105A400001F801CB00F8013B521E002AF5D1764245
:105A500054F8040C61688842D7DC4B462A46384625
:105A6000FFF7C0FF54F8040C4B46A8EB0001401CA4
:105A700000FB05702A46491EFFF7B4FFBDE8FE8310
:105A800010B5431A934209D28318881803E010F81E
:105A9000011D03F8011D521EF9D210BD40EA010399
:105AA0009B0703D009E008C9121F08C0042AFAD2D4
:105AB00003E011F8013B00F8013B521EF9D210BD82
:105AC000D2B201E000F8012B491EFBD27047002240
:105AD000F6E710B513460A4604461946FFF7F0FFED
